:100000000C9493000C94B0000C94B0000C94B000CD
:100010000C94B0000C94B0000C94B0000C94B000A0
:100020000C94B0000C94B0000C94B0000C94B00090
:100030000C94B0000C94B0000C9499010C94B00096
:100040000C94B0000C94B0000C9454020C94B000CA
:100050000C94B0000C94B0000C94B0000C94B00060
:100060000C94B0000C94B000506F776572204F462E
:10007000460D0A0052657365740D0A000D0A446F3F
:100080006E652E0D0A0053746172742070726F6772
:1000900072616D6D696E67202E2E2E005369676E3A
:1000A00061747572653A0D0A0050726F6772616D06
:1000B000204D656D6F72792069732065726173657B
:1000C000642121210D0A0038394332303531206E48
:1000D0006F7420666F756E642121210D0A00383916
:1000E00043323035312064657465637465642E2055
:1000F000537570706F7274656420636F6D6D616E9F
:1001000064733A20652C722C642C702C632C522C56
:10011000710D0A0053656E64207320746F20737430
:100120006172740D0A0011241FBECFEFD8E0DEBF4C
:10013000CDBF11E0A0E0B1E0E8E2F7E002C0059039
:100140000D92A431B107D9F721E0A4E1B1E001C0DB
:100150001D92A136B207E1F70E946D020C94920342
:100160000C940000CF93DF931092150110921401AC
:10017000CFE3D8E01092B00018B815B88BB18370F7
:100180008BB984E191E00E942A0280E00E9438024B
:10019000833781F7C5B9D8B98BB1806F8BB964EF5C
:1001A00071E080E090E00E94710123B189B190E19B
:1001B000299F9001112482958F70822B8C3131F40C
:1001C0008EED90E0DF91CF910C942A0287EC90E0C5
:1001D0000E942A02CFCF15B818B88BB183708BB9A3
:1001E000109215011092140164E670E080E090E036
:1001F0000E9471018FE385B988E088B98BB1806F67
:100200008BB908951F93CF93DF93CDB7DEB7619776
:100210000FB6F894DEBF0FBECDBF182F81E1E0E02E
:10022000F1E0DE01119601900D928A95E1F7E12F40
:10023000F0E084E0F595E7958A95E1F781E090E0BC
:100240008C0F9D1FE80FF91F80810E940202E12F91
:10025000EF7081E090E08C0F9D1F8E0F911DFC01CF
:10026000808161960FB6F894DEBF0FBECDBFDF91DF
:10027000CF911F910C940202CF93C82F892F0E9417
:1002800002018C2FCF910C940201CF938091140125
:10029000909115010E943C018AE30E940202C0E194
:1002A00080E20E94020223B189B190E1299F90016E
:1002B000112482958F70822B0E9402015A9A5A98BB
:1002C000C15071F781E191E00E940902809114010F
:1002D0009091150140969093150180931401CF9150
:1002E0000895462F572FBC014093190150931A01CE
:1002F00060931B0170931C0181E080931801E091D1
:100300001601F091170180911801882321F0309790
:10031000D1F30995F4CF08959093170180931601B6
:1003200089EF87BD82E084BD93E095BD80936E0028
:1003300008951F921FB61F9211248F939F93AF931E
:10034000BF9380911D0190911E01019690931E0113
:1003500080931D0180911801882309F18091190172
:1003600090911A01A0911B01B0911C010197A10964
:10037000B1098093190190931A01A0931B01B093C6
:100380001C018091190190911A01A0911B01B0915B
:100390001C010097A105B10511F410921801BF913D
:1003A000AF919F918F911F901FBE1F901895CF9373
:1003B000DF9300D000D0CDB7DEB769837A838B831B
:1003C0009C8360E874E88EE190E029813A814B815A
:1003D0005C810E94700321503109410951095695F1
:1003E0004795379527952093C40086E08093C200F7
:1003F00088E98093C1000F900F900F900F90DF91CC
:10040000CF9108959091C00095FFFCCF8093C600D6
:100410000895CF93DF93EC018991882321F00E9406
:100420000202CE01F8CFDF91CF9108950F931F9371
:10043000CF93DF93EC018C01060F171FC017D10774
:1004400021F089910E940202F9CFDF91CF911F9193
:100450000F910895CF93DF93EC01FE0184912196D3
:10046000882319F00E940202F8CFDF91CF910895FE
:10047000882339F08091200190911F01891B8F738F
:1004800008959091200180911F019817D1F3E09178
:100490001F01F0E0EF5DFE4F808190911F019F5F93
:1004A0009F7390931F0108958F938FB78F93EF934E
:1004B000FF938091C600E0912001F0E0EF5DFE4FD8
:1004C0008083809120018F5F8F7380932001FF9143
:1004D000EF918F918FBF8F91189584B1806384B90C
:1004E00087B18F6087B98AB18C608AB990E080E06B
:1004F0000E948C0160E072EC81E090E00E94D701E4
:100500001092B0001092B1001092700083E08093BE
:10051000B4008093B30081E08093B10078940E948E
:10052000B2009CE0E92E2EE0D22E32E1C32E08E28A
:1005300010E046E0B42E58E0F52E6FE3A62E80E0E2
:100540000E943802853609F457C07CF4833609F4DA
:1005500086C0843609F47CC0823589F784E790E050
:100560000E942A020E94EB00EACF813709F4AEC054
:10057000823709F469C0803711F786E890E00E945D
:100580002A02D8B8C092B0006AE070E080E090E043
:100590000E94710184B18F6384B98AB18C6F8AB96A
:1005A00081E191E00E94090280911401909115016E
:1005B0000E943C018AE30E94020280E1982E80E2C0
:1005C0000E94020280E00E943802C82F843209F0A3
:1005D0004CC08CE790E00E942A021092B00084B1D7
:1005E000807F84B98AB18F708AB95B98F8B8A5B852
:1005F0008BB1806F8BB9A3CFC9E0C8B9C092B000EE
:1006000064E670E080E090E00E94710181E088B9CA
:100610006AE070E080E090E00E947101C8B9109239
:10062000B0005B986AE070E080E090E00E947101A9
:10063000F8B864E670E080E090E00E94710189EA19
:1006400090E00E942A027BCFE8B80E94450177CF54
:10065000E8B8C0E40E944501C150E1F770CFF8B896
:100660008CE990E00E942A02F0CF803308F4AACFF0
:100670000E940202C13408F0C750CF7080E00E948F
:100680003802D82F0E940202D13408F0D750C0633C
:10069000C5B98BB18F70D295D07FD82BDBB9B8B8E4
:1006A000C8010197F1F7D8B8C8010197F1F75A9A34
:1006B0005A9880911401909115010196909315011B
:1006C000809314019A9491107ACF6ACF88E690E0D3
:1006D0000E942A028EE50E9402020E94B2002FCFE1
:1006E000A1E21A2EAA1BBB1BFD010DC0AA1FBB1F36
:1006F000EE1FFF1FA217B307E407F50720F0A21BA8
:10070000B30BE40BF50B661F771F881F991F1A9414
:1007100069F760957095809590959B01AC01BD013E
:08072000CF010895F894FFCF0A
:10072800303132333435363738394142434445461F
:04073800000D0A00A6
:00000001FF
