:0200000001FC01
:0100030032CA
:02000B0001B73B
:0100130032BA
:01001B0032B2
:10002300C0E0C0D030983575D008E599B45E027948
:100033000DF709B91926BD5E21BE7E1EBF7E1B8545
:10004300104085114185124285134385144485155B
:1000530045851646851747851848790D759850D0FC
:10006300D0D0E032FF38A9E998293928EC19D9E82A
:100073008CCD51FFDF437E77E3B7BF47FFF7EFBB7D
:100083009E7BBEAE00044001100880200214243081
:100093003488C9E4DD417C75E1B5BD45FDF5EDB9B5
:1000A3009C79BCACFFFEFDFBF7EFDFBF7FFFFFFFDB
:1000B300FFFFFFFFC0E0C0D075D008758CF9758ACB
:1000C300BF900067E67A3F30E60B3006087A1F20C0
:1000D300E703E401DA5A93D2B4F590E893D2B5D2A8
:1000E300B7C2B5F590B4FF02C2B7C2B408B84904A9
:1000F30078400520D0D0D0E032E475D0087840793C
:100103000DF5D075815F78407467F608B849FB75C3
:100113008921758DFF758CF9758ABF75B80275A82D
:0C01230092758850759850758780212DCA
:00000001FF
