:100000000C9424010C944C010C944C010C944C0164
:100010000C944C010C944C010C944C010C944C012C
:100020000C944C010C944C010C944C010C944C011C
:100030000C944C010C944C010C948E020C944C01C9
:100040000C944C010C944C010C94E40A0C944C015B
:100050000C944C010C944C010C944C010C944C01EC
:100060000C944C010C944C014F5645524845415458
:10007000494E472121210D0A004E6F203157495228
:10008000452073656E736F7273210D0A00454E43F0
:1000900032384A3630206E6F7420666F756E642178
:1000A0000D0A000D0A426F696C65722D6175746FDF
:1000B00020737461727465640D0A000D0A557365CE
:1000C000722D4167656E743A204D6F7A696C6C6170
:1000D0002F352E300D0A0D0A0020485454502F3170
:1000E0002E300D0A486F73743A2000474554202F74
:1000F0006C6F672E7068703F7661723D000D0A5418
:100100006573742D6D6F64652073746172746564BA
:100110000D0A003030303631323139323533313337
:10012000383434353035363632363937353831387B
:1001300038393400450000820000400020000108EA
:100140000006040001005EBCE2613FDD83C29C7ECC
:1001500020A3FD1F419DC3217FFCA2401E5F01E340
:10016000BD3E6082DC237D9FC1421CFEA0E1BF5DDD
:100170000380DE3C62BEE0025CDF81633D7C22C026
:100180009E1D43A1FF4618FAA427799BC584DA383F
:1001900066E5BB5907DB856739BAE406581947A5F8
:1001A000FB7826C49A653BD987045AB8E6A7F91BA1
:1001B00045C6987A24F8A6441A99C7257B3A6486DE
:1001C000D85B05E7B98CD2306EEDB3510F4E10F20B
:1001D000AC2F7193CD114FADF3702ECC92D38D6FA8
:1001E00031B2EC0E50AFF1134DCE90722C6D33D175
:1001F0008F0C52B0EE326C8ED0530DEFB1F0AE4C8E
:100200001291CF2D73CA947628ABF517490856B4CE
:10021000EA6937D58B5709EBB536688AD495CB296F
:1002200077F4AA4816E9B7550B88D6346A2B759728
:10023000C94A14F6A8742AC896154BA9F7B6E80A55
:1002400054D7896B3500AC0C11241FBECFEFD8E01A
:10025000DEBFCDBF11E0A0E0B1E0E0E6FAE102C010
:1002600005900D92AE38B107D9F723E0AEE8B1E0C2
:1002700001C01D92A43DB207E1F711E0C4E2D1E054
:1002800004C02197FE010E94FB0CC332D107C9F7BD
:100290000E94FD0A0C942E0D0C94000090E080E06A
:1002A0000E9481028DEF90E00E94BA0A8EE291E0F6
:1002B0000E94990AC4E0CF5FC83008F0C4E0C8B912
:1002C00060ED77E080E090E00E946602F4CF9091CC
:1002D000C901892F80638093310180E280933201CC
:1002E0008093330180933401809335018091C40160
:1002F00084332CF0883319F18FE780933501E92F8F
:10030000EE0FE90FEE0FF0E0E257FE4F80818D32E5
:1003100009F487E28093360181818D3291F487E27E
:100320008093370183818D3209F487E2809338010D
:1003300084818D3209F487E28093390108958AE738
:10034000DCCF8F71EDCFCF93DF93EC01FC01719780
:100350008081803521F56BEE70E0CE010E94150D95
:100360006EE871E0CE010E94230D69ED70E0CE01D0
:100370000E940A0D60E171E0CE010E94230D6BEB3B
:1003800070E0CE010E940A0DFE0101900020E9F705
:100390003197CF018C1B9D0BDF91CF91089590E099
:1003A00080E0FACF0F931F93CF93DF93EC01683C6B
:1003B000710509F03FC08E010E541F4F84E891E093
:1003C0000E94990A66E170E0C8010E94A60A8AE8C4
:1003D00091E00E94990ADE01A954BF4FE1E2F1E0E9
:1003E000C753DF4F2AE09C919F7011968C91119713
:1003F0008F70929F800D112481931396CA17DB078B
:1004000091F784E0F801A1E3B1E001900D928A95A3
:10041000E1F780913201806C809332018EE291E0AD
:100420000E94990A81E08093C701DF91CF911F91CB
:100430000F9108950E94A60AFE01789685E0AEEB22
:10044000B1E001900D928A95E1F781E08093C601B9
:10045000ECCF339B03C01092C80108958091C8016E
:10046000811113C081E08093C8018091C9018F5F21
:10047000893040F48093C9010E9467018EE291E0C7
:100480000C94990A1092C901F7CF0895CF93DF9386
:100490000E94C808F8948091EF019091F001C091FA
:1004A000E601D091E701C827D9279093E70180930F
:1004B000E6017894C3FD0E942902D1FF04C0DF91B8
:1004C000CF910C94B908DF91CF910895462F572F03
:1004D000BC014093EB015093EC016093ED017093EC
:1004E000EE0181E08093EA01E091E801F091E901F9
:1004F0008091EA01882321F03097D1F30995F4CF58
:1005000008959093E9018093E80189EF87BD82E027
:1005100084BD93E095BD80936E0008951F921FB631
:100520001F9211248F939F93AF93BF938091EF01FC
:100530009091F00101969093F0018093EF018091EA
:10054000EA01882309F18091EB019091EC01A091DF
:10055000ED01B091EE010197A109B1098093EB0182
:100560009093EC01A093ED01B093EE018091EB012B
:100570009091EC01A091ED01B091EE010097A105E1
:10058000B10511F41092EA01BF91AF919F918F9143
:100590001F901FBE1F9018952A9808952A9A0895B3
:1005A0000DB407FEFDCF0895CF93DF93D82FC62F4C
:1005B0000E94CC028C2F8F718D2B8EBD0E94D00299
:1005C0001EBC0E94D002C7FF03C01EBC0E94D00206
:1005D0000E94CE028EB5DF91CF9108951F93CF93E5
:1005E000DF93182FC62FD42F0E94CC02CF71C12BBE
:1005F000CEBD0E94D002DEBD0E94D002DF91CF911D
:100600001F910C94CE020F931F93CF93DF938C0115
:10061000EB010E94CC028AE38EBD0E94D0020C0F37
:100620001D1FC017D10731F01EBC0E94D0028EB52D
:100630008993F7CF1882DF91CF911F910F910C947E
:10064000CE020F931F93CF93DF938C01EB010E9497
:10065000CC028AE78EBD0E94D0020C0F1D1FC0176E
:10066000D10729F089918EBD0E94D002F8CFDF9189
:10067000CF911F910F910C94CE02CF93DF93C82F8F
:10068000D82FD0768091F3018D1799F043E06FE178
:1006900080EA0E94EE024C2F50E085E05595479588
:1006A0008A95E1F743706FE180E80E94EE02D093F3
:1006B000F301DF91CF910895CF93C82F0E943D039E
:1006C0006C2F80E0CF910C94D402CF93DF93C82F8E
:1006D000D62F0E943D034D2F6C2F80E4DF91CF91E8
:1006E0000C94EE02682F84ED0E94650361E082EDB8
:1006F0000E94650380E58A95F1F78AEE0E945C030B
:1007000080FDFBCF60E082ED0E94650389ED0E94D1
:100710005C0390E00895CF93DF93D62FC72F682F07
:1007200084ED0E9465036D2F86ED0E9465036C2F9A
:1007300087ED0E9465038AEE0E945C0380FF04C07F
:1007400080E58A95F1F7F7CFDF91CF910895CF93A8
:10075000DF93229A0E94CE0284B1886284B92498E1
:100760002B982D9880E58CBD8DB581608DBD4FEFA8
:1007700060E08FEF0E94EE028DEC8A95F1F7109207
:10078000F2011092F10160E088E00E94650360E0F0
:1007900089E00E94650360E08CE00E94650360E0F0
:1007A0008DE00E9465036EEF8AE00E94650369E1B7
:1007B0008BE00E9465036FEF84E00E94650369E1AE
:1007C00085E00E9465036FEF86E00E9465036FE19C
:1007D00087E00E94650360EB88E30E9465036FE396
:1007E00088E20E94650360E389E20E94650369EF85
:1007F00080E30E94650367EF81E30E9465036DE07B
:1008000080EC0E94650360E081EC0E94650342E396
:1008100062EC80E80E94EE0262E186EC0E946503D1
:100820006CE087EC0E94650362E184EC0E94650342
:100830006CED8AEC0E94650365E08BEC0E94650319
:10084000CDE3D1E0688184EE0E946503698185EE85
:100850000E9465036A8182EE0E9465036B8183EECC
:100860000E9465036C8180EE0E9465036D8181EEBC
:100870000E94650360E071E080E10E948B038FE1DC
:100880000E943D0340EC6BE180E80E94EE0244E0F0
:100890006FE180E80E94EE0262E085E70E94650356
:1008A000C2E38C2F8A95F1F766E774E084E10E9439
:1008B0008B03CA95F1F782E7DF91CF910C945C032B
:1008C0008F929F92AF92BF92CF92DF92EF92FF9260
:1008D0000F931F93CF93DF937C01962E072F89E30D
:1008E0000E945C03D12CC12C882309F45FC0609165
:1008F000F101C091F20180E00E9465036C2F81E05C
:100900000E94650360E08AE30E94D402C82F60E081
:100910008AE30E94D402D82FD093F201C093F10150
:1009200060E08AE30E94D402182F60E08AE30E940C
:10093000D402882E60E08AE30E94D402A82EB12C53
:1009400060E08AE30E94D402650120E8C222DD242F
:10095000A7FE10C0982D812F0497670121E0C21ACD
:10096000D1088C159D0508F46C01692D702FC60106
:100970000E9403036C2F8CE00E9465036D2F8DE0B5
:100980000E9465038E01015011090F3F89E118078C
:10099000D8F06EEF8CE00E94650369E18DE00E9463
:1009A000650340E46EE180E80E94EE02C601DF913B
:1009B000CF911F910F91FF90EF90DF90CF90BF905C
:1009C000AF909F908F9008956C2F61508CE00E94A3
:1009D0006503612FE3CF0F931F93CF93DF93EC0158
:1009E0008B016FE180E00E94D40283FF10C08CE194
:1009F0000E945C0381FFF5CF40E86FE180E80E9430
:100A0000EE0240E86FE180EA0E94EE02EACF6FEF6B
:100A100082E00E94650369E183E00E9465036C2F18
:100A2000615086E00E946503CE018150964E692F89
:100A300087E00E94650340E060E08AE70E94EE02E2
:100A4000B801CE010E94210348E06FE180E8DF9108
:100A5000CF911F910F910C94EE0281E10E947203DD
:100A6000969587959695879581700895CF93DF9396
:100A7000FC019B014130C1F4CB010897B0E0A0E03C
:100A80004196A11DB11DA901EF0142305105C8F0E9
:100A900069917991762767277627860F971FA11D81
:100AA000B11D42505109F1CF80E090E0DC014230AD
:100AB00051F7CB010897B0E0A0E00696A11DB11D4B
:100AC000E2CFA9014E7FE40FF51F2417350761F02F
:100AD000408150E070E060E0762F652F542F44276E
:100AE000840F951FA61FB71FAD01662777274115F5
:100AF00051056105710519F0AA27BB27F1CF809533
:100B00009095DF91CF9108958997B0F0809101027F
:100B1000883091F480910202863071F4ABE1B2E04A
:100B2000ECE0F1E084E08E0F2D919191291304C047
:100B30008E13FACF81E0089580E008958A97D0F06F
:100B4000809101028830B1F480910202811112C0BB
:100B500090910302953479F4A3E1B2E0ECE0F1E086
:100B600094E09E0F3D912191321305C09E13FACF60
:100B700081E0089580E0089586E0EBEFF1E0A5EFD5
:100B8000B1E001900D928A95E1F786E0EDE3F1E0A6
:100B9000ABEFB1E001900D928A95E1F70895CF9304
:100BA000DF93C5EFD1E0188E198E80E48C8B1D8AFF
:100BB0008E8B40E064E170E083E092E00E943605B5
:100BC000982789279827998F888FDF91CF9108954B
:100BD00084E0EFE0F2E0A3E1B2E001900D928A95AB
:100BE000E1F780910C0190910D01A0910E01B0915F
:100BF0000F0180930F0290931002A0931102B09303
:100C000012020C94CF050F931F93CF93DF93EC0147
:100C10008091F4018F5F8093F40186E0E8E8F3E0CF
:100C2000A5EFB1E001900D928A95E1F786E0EDE342
:100C3000F1E0ABEFB1E001900D928A95E1F788E029
:100C4000809301021092020249E050E064E371E0F7
:100C500083E092E00E94010D81E180930C0280917B
:100C6000040190910501A0910601B09107018093C4
:100C7000130290931402A0931502B0931602809170
:100C80000C0190910D01A0910E01B0910F01809384
:100C90000F0290931002A0931102B09312021092CF
:100CA000190285E380931A0280EE80931702309137
:100CB000F4013093180210921D0210921E02EFE10F
:100CC000F2E08CE0DF011D928A95E9F7EBE2F2E0B9
:100CD00080E029912E3241F0222331F08F5FDF0135
:100CE000A80FB11D2C93F5CF808390E00196E80FFB
:100CF000F91F2111EDCF1082118281E082831382CE
:100D00008483EF01C05FD1400C2F0A5200931F0271
:100D100030932002809321028093240210E0C801C6
:100D20004C96909305028C2F8E50809306020E9461
:100D3000CF05C801089690931B02C252C0931C02B3
:100D4000B801605F7F4F41E08FE092E00E9436057E
:100D500098278927982790931E0280931D0265EF9C
:100D600071E0C8018A96DF91CF911F910F910C9489
:100D7000EB04E0911F02F0E0E15EFD4F8B509E4FCF
:100D80002081207CD1F032969F01225F3F4F821755
:100D9000930710F1218531813130C1F42430B1F451
:100DA00082859385A485B58580938E0390938F0368
:100DB000A0939003B093910308953196E817F90733
:100DC00018F740814111F9CF3196DECF30E0265F30
:100DD0003F4FE20FF31FD4CF0895FF920F931F935D
:100DE000CF93DF938C0146E050E06FEF70E085EF2A
:100DF00091E00E941C0D86E0EDE3F1E0ABEFB1E085
:100E000001900D928A95E1F7C5EFD1E088E08C87DB
:100E100086E0F82EFD861C8A81E08D8B48E050E04C
:100E20006DE371E083E092E00E94010DE5E1F2E004
:100E3000DF011D92FA94E9F786E0EDE3F1E0ABE023
:100E4000B2E001900D928A95E1F784E0F801ABE100
:100E5000B2E001900D928A95E1F780910C0190919A
:100E60000D01A0910E01B0910F018C8F9D8FAE8F5F
:100E7000BF8FBE018AE290E0DF91CF911F910F9169
:100E8000FF900C94EB04CF93DF930E94BC05C5EF59
:100E9000D1E01C8A82E08D8B86E0EBE0F2E0A5E1F8
:100EA000B2E001900D928A95E1F786E0EDE3F1E082
:100EB000ABE0B2E001900D928A95E1F784E0E1E1C8
:100EC000F2E0ABE1B2E001900D928A95E1F78091FA
:100ED0000C0190910D01A0910E01B0910F018C8F2A
:100EE0009D8FAE8FBF8FBE018AE290E0DF91CF91E0
:100EF0000C94EB04CF93DF93D82FC92F0E94BC052D
:100F00000E94E8051092170220911902283F28F04C
:100F100080911A028F5F80931A02285F2093190232
:100F200065EF71E08D2F9C2FDF91CF910C94EB0436
:100F3000DF92EF92FF920F931F93CF93DF937C0189
:100F40008B0186E0E8E8F3E0A5EFB1E001900D92B7
:100F50008A95E1F786E0EDE3F1E0ABEFB1E00190D7
:100F60000D928A95E1F7C5EFD1E088E0D82EDC86B6
:100F70001D8649E050E064E371E083E092E00E9466
:100F8000010D86E08F8B8CE2898B84E0F701A3E171
:100F9000B2E001900D928A95E1F780910C01909159
:100FA0000D01A0910E01B0910F018A8F9B8FAC8F24
:100FB000BD8F0E94CF051027012710271DA30CA36A
:100FC0008BE08AA381E28BA3EBE1F2E0DF011D92CB
:100FD000DA94E9F78091430188A78D5F80934301FC
:100FE00080E68EA782E08FA793E098AB19AA1AAA91
:100FF0001BAA1CAA1DAA8EAB94E09FAB88AF86E209
:1010000089AF42E060E270E08FE092E00E94360536
:101010009827892798279BAB8AABBE018AE390E08B
:10102000DF91CF911F910F91FF90EF90DF900C9483
:10103000EB049C0184E0815080F0E82FF0E0DF01B8
:10104000A55EBD4F9C91290F311DE15EFD4F908142
:1010500020839C93232F3327EECF0E94BC05109250
:10106000050288E2809306020E94E805809117023B
:10107000809319028091180280931A028BE080936A
:10108000170281E28093180280E58093230283E0B7
:1010900080932502109226021092270210922802B5
:1010A0001092290210922A0242E06CE170E08FE077
:1010B00092E00E9436059827892798279093280266
:1010C0008093270265EF71E086E390E00C94EB04D7
:1010D0000F931F93CF93DF93EC0105EF11E0F8011D
:1010E000108A885D818B0E94CF05F80112AA13AA8D
:1010F00014AA15AABE01645E7F4F42E08FE092E021
:101100000E943605982789279827F80193AB82AB70
:10111000B801CE01C696DF91CF911F910F910C942B
:10112000EB04809105029091060298278927982761
:101130008897089520918703222381F020918603C8
:10114000222361F020918E03211102C00C9403062A
:1011500060E570E08EE893E00C9498070895209184
:101160008703222329F02091860321110C949807EC
:1011700008950E942D0580938703882341F0809174
:101180008603811104C088E091E00C94ED06089577
:101190001F93CF93DF9365EF71E080E991E00E94A8
:1011A0006004EC010097D9F00E9484058823D9F0EF
:1011B00080910A02813029F4DF91CF911F910C9424
:1011C0004307823061F486E0EBE0F2E0A8E8B3E0A8
:1011D00001900D928A95E1F781E080938603DF917B
:1011E000CF911F910895CE010E949E058823B9F3E7
:1011F00080910C02813051F480911702883079F788
:10120000CE01DF91CF911F910C947A078131A1F427
:1012100080911802853319F7809122028F70F9F6B8
:10122000CE010E94B90660E570E08EE893E0DF91A0
:10123000CF911F910C949807863089F61091240263
:1012400014FFCDCF12FDCBCF11FF16C080E18093EC
:10125000240281E090E00E9419088BE292E00E9453
:10126000A301009709F4BBCF28E120932402DF916A
:10127000CF911F910C9468080E949108EC0113FF14
:1012800010C0009771F0BC018BE292E00E94D20185
:1012900089E180932402CE01DF91CF911F910C94BC
:1012A000190810FF9CCFCD2B09F099CF89E18093CD
:1012B000240281E090E0F0CFFC0160830895FC01FE
:1012C000908187B1492F4095842387B988B18423C1
:1012D00088B9E8E2F0E03197F1F7692F70E026B1C4
:1012E00030E02095309526233723232BC1F787B193
:1012F000892B87B9E0E8F7E03197F1F7F89487B1E7
:10130000842387B9E8E1F1E03197F1F786B1789469
:10131000E0E4F6E03197F1F7809589230895FC0128
:101320008081F89428B1982F9095922398B997B11D
:10133000982B97B9E8E2F0E03197F1F7662369F06E
:1013400098B1892B88B988EC90E00197F1F784E196
:1013500090E00197F1F778940895ECEDF0E0319783
:10136000F1F798B1892B88B9F2CFEF92FF920F93E2
:101370001F93CF93DF93F82E092FE62EC8E0D0E01D
:1013800011E06E2D61238F2D902F0E948F09110F78
:101390002197B9F7DF91CF911F910F91FF90EF90B7
:1013A0000895EF92FF920F931F93CF93DF938C01D9
:1013B000EB017B01E40EF51ECE15DF0529F06991E6
:1013C000C8010E94B509F8CFDF91CF911F910F910D
:1013D000FF90EF9008950F931F93CF93DF93D82F33
:1013E000C92F8B0165E50E94B50948E050E0B801BE
:1013F0008D2F9C2FDF91CF911F910F910C94D109CC
:10140000FC019081F89428B1392F3095232328B915
:1014100027B1292B27B9ECE0F0E03197F1F787B13C
:10142000832387B9E8E2F0E03197F1F786B18923A9
:1014300086B97894E4EDF0E03197F1F70895EF92F2
:10144000FF920F931F93CF93DF93F82EE92E08E0BE
:1014500010E0D1E0C0E08F2D9E2D0E94000A811186
:10146000CD2BDD0F01501109B1F78C2FDF91CF91FA
:101470001F910F91FF90EF900895EF92FF920F93BD
:101480001F93CF93DF938C01EB017B01E40EF51EDC
:10149000CE15DF0529F0C8010E941F0A8993F8CFF5
:1014A000DF91CF911F910F91FF90EF900895282F1A
:1014B00080E0615058F0A22FB92FED91E827F0E0BD
:1014C000EB5BFE4F84912A2F9B2FF3CF0895CF9390
:1014D000DF9300D000D0CDB7DEB769837A838B83EA
:1014E0009C8360E874E88EE190E029813A814B8129
:1014F0005C810E94C50C2150310941095109569562
:101500004795379527952093C40086E08093C200C5
:1015100088E98093C1000F900F900F900F90DF919A
:10152000CF9108959091C00095FFFCCF8093C600A5
:101530000895CF93DF93EC018991882321F00E94D5
:10154000920ACE01F8CFDF91CF9108950F931F93A8
:10155000CF93DF93EC018C01060F171FC017D10743
:1015600021F089910E94920AF9CFDF91CF911F91CA
:101570000F910895CF93DF93EC01FE0184912196A2
:10158000882319F00E94920AF8CFDF91CF91089535
:10159000882339F08091930390919203891B8F7374
:1015A000089590919303809192039817D1F3E0915D
:1015B0009203F0E0EC56FC4F8081909192039F5F84
:1015C0009F739093920308958F938FB78F93EF93A8
:1015D000FF938091C600E0919303F0E0EC56FC4F3E
:1015E0008083809193038F5F8F7380939303FF9128
:1015F000EF918F918FBF8F91189560E072EC81E031
:1016000090E00E94670A83E087B988E088B97894FF
:1016100083EA90E00E94BA0A339B0E944E010E9426
:10162000A703811104C08DE890E00E94BA0A86E405
:1016300092E00E9481026CE474E080E090E00E94FD
:10164000660204E811E0CAE0D0E086E0E7E2F1E0FB
:10165000AEEBB1E001900D928A95E1F71092C601D0
:1016600063E670E080E091E00E94AF0885EE91E0D3
:101670000E945F09811104C089E790E00E94BA0AC4
:101680006CEC85EE91E00E94B50964E485EE91E092
:101690000E94B5096CE474E080E090E00E9466026C
:1016A00094E4A92E91E0B92E2EE8E22E21E0F22E4C
:1016B0003AECC32E31E0D32E85EE91E00E945F0913
:1016C000B50185EE91E00E94EB096EEB85EE91E0AD
:1016D0000E94B50949E050E06CED71E085EE91E0C3
:1016E0000E943D0A86E0E7E2F1E0D70101900D9209
:1016F0008A95E1F768E08CED91E00E94570A90919D
:10170000E40189132EC02091DC013091DD01D60166
:1017100011963C932E9337FD50C084E03595279564
:101720008A95E1F7C901BE010E94B10C60636A337A
:101730000CF03FC0F7016083C901BE010E94B10CEB
:101740008063F7018183D601ED91FC91EE0FFF1FBD
:10175000EE71FF27ED5EFE4F85919491F701948322
:101760008383F8E0AF0EB11C86E0E80EF11CA2E026
:10177000CA0ED11C0A151B0509F09ECF8091CA0123
:101780009091CB01F4E095958795FA95E1F7982F24
:1017900080912601FF24F394981708F4F12C9817F0
:1017A000C8F088E690E00E94BA0A90E020E080E06D
:1017B00053C06A50D7016C93BFCF88279927821BEB
:1017C000930B8D939C93B4E095958795BA95E1F72B
:1017D0008F70B6CF2091D4013091D50154E035956A
:1017E00027955A95E1F7322F4091D6015091D701B4
:1017F00064E0559547956A95E1F76091D80170913D
:10180000D901E4E075956795EA95E1F72091250106
:10181000621708F09CC080912201681708F492C0FA
:1018200081E0921708F080E0491790F4909121012F
:10183000491770F4882309F47DC09091230139176A
:1018400008F07BC0321708F473C090E020E06EC04F
:101850008111F8CF90E020E030E0220F331F392FC4
:10186000322B386038B9FF0CFF0CFF0C880F880F43
:101870008F29892B822B80638093C4011092C5012C
:101880000E9467018EE891E00E94990A8AE891E03F
:101890000E94990A1092C701F12C8091C701811111
:1018A0000BC08091C601811103C0B2E0BF1520F4C6
:1018B00080E191E00E949A0864EC79E080E090E099
:1018C0000E946602F11008C08091C701811104C016
:1018D0008EE291E00E94990A8091C601811109C0AF
:1018E000E1E0EF1530F063E670E080E091E00E9407
:1018F000AF08F394FCE0FF12D0CF8091C401843391
:101900000CF0A3CE60EC74ED81E090E00E946602E2
:101910009CCE90912401282F391790F480912101B9
:1019200091E0481718F0381708F090E081E094CF64
:1019300020E0F4CF90E021E08FCF321750F3282F32
:1019400090E08ACF491708F030CF80E06FCF491779
:1019500008F078CF81E06ACF64E085EE91E00C94E6
:101960005C0997FB072E16F4009407D077FD09D089
:101970000E94E70C07FC05D03EF4909581959F4F9F
:101980000895709561957F4F0895A1E21A2EAA1BC4
:10199000BB1BFD010DC0AA1FBB1FEE1FFF1FA2171F
:1019A000B307E407F50720F0A21BB30BE40BF50B1C
:1019B000661F771F881F991F1A9469F760957095A5
:1019C000809590959B01AC01BD01CF010895AA1BA4
:1019D000BB1B51E107C0AA1FBB1FA617B70710F01A
:1019E000A61BB70B881F991F5A95A9F7809590954C
:1019F000BC01CD010895EE0FFF1F0590F491E02D7D
:101A00000994FB01DC0102C005900D924150504049
:101A1000D8F70895FB01DC010D900020E9F711973C
:101A200005900D920020E1F70895FB01DC0105907F
:101A30000D920020E1F70895DC0101C06D93415043
:101A40005040E0F70895FB01DC010D900020E9F71C
:101A5000119701900D920020E1F70895F894FFCFBF
:101A6000C0A80109D45E607BC0A80101C0A8016FB5
:101A700079666237393035692E626765742E727502
:101A80000019202A2E32602D2D2E2D2D2B005E7E4A
:101A90007E3132333435363738390D0A00000102D1
:101AA0000304050A2813390E060000AF288AB80C73
:101AB0000600008928A3980D060000DE28A7C60CA2
:101AC000060000BA289FA90E0600008F28B2EEA9D2
:101AD000040000AB28F33DA9040000F9286164115B
:0E1AE0008D8CFF764346473A20000D0A000029
:00000001FF
