:100000000C9456010C94D90E0C94B20E0C947E01F3
:100010000C947E010C947E010C947E010C947E0164
:100020000C947E010C947E010C947E010C947E0154
:100030000C947E010C947E010C947E010C947E0144
:100040000C94680E0C947E010C945B0D0C94350D91
:100050000C947E010C947E010C947E010C947E0124
:100060000C947E010C947E016382536300010800AE
:100070000604000100504F53542024462048545495
:10008000502F312E300D0A486F73743A2024460DDC
:100090000A244624534163636570743A202A2F2A48
:1000A0000D0A436F6E74656E742D4C656E677468CF
:1000B0003A2024440D0A436F6E74656E742D547992
:1000C00070653A206170706C69636174696F6E2F3E
:1000D000782D7777772D666F726D2D75726C656EE2
:1000E000636F6465640D0A0D0A245300474554206C
:1000F0002446245320485454502F312E300D0A48A2
:100100006F73743A2024460D0A24460D0A0D0A0026
:10011000450000820000400020000000002400276D
:10012000002A0000000000250028002B000000002D
:1001300008000201000003040700000000000000A6
:1001400000005EBCE2613FDD83C29C7E20A3FD1FF8
:10015000419DC3217FFCA2401E5F01E3BD3E608242
:10016000DC237D9FC1421CFEA0E1BF5D0380DE3C1D
:1001700062BEE0025CDF81633D7C22C09E1D43A124
:10018000FF4618FAA427799BC584DA3866E5BB597F
:1001900007DB856739BAE406581947A5FB7826C4FA
:1001A0009A653BD987045AB8E6A7F91B45C6987AE1
:1001B00024F8A6441A99C7257B3A6486D85B05E7DC
:1001C000B98CD2306EEDB3510F4E10F2AC2F71934B
:1001D000CD114FADF3702ECC92D38D6F31B2EC0EAA
:1001E00050AFF1134DCE90722C6D33D18F0C52B0B5
:1001F000EE326C8ED0530DEFB1F0AE4C1291CF2D8C
:1002000073CA947628ABF517490856B4EA6937D50E
:100210008B5709EBB536688AD495CB2977F4AA4871
:1002200016E9B7550B88D6346A2B7597C94A14F668
:10023000A8742AC896154BA9F7B6E80A54D7896B53
:1002400035557365722D4167656E743A204D6F7A2E
:10025000696C6C612F352E30007966623739303524
:10026000692E626765742E7275002F6C6F672E7031
:1002700068703F7661723D00000000002300260098
:100280002900040404040404040402020202020219
:10029000030303030303010204081020408001024A
:1002A00004081020010204081020E01311241FBECE
:1002B000CFEFD8E0DEBFCDBF12E0A0E0B1E0E6E3D3
:1002C000F1E302C005900D92A436B107D9F725E0FD
:1002D000A4E6B2E001C01D92A635B207E1F711E035
:1002E000C6E5D1E004C02197FE010E945D18C53526
:1002F000D107C9F70E9447140C9499180C94000078
:10030000DC011696ED91FC9117979F012F5F3F4FEF
:1003100017963C932E931697608381E090E00895A2
:10032000089580E090E00895CF92DF92EF92FF92DF
:100330000F931F938634910568F12091B502233401
:1003400049F5C090C002D090C102E090C202F09086
:10035000C30200916D0210916E0220916F023091E4
:100360007002C016D106E206F306A1F4ECEAF3E04F
:100370008E569D4F9F012E5F3F4F418150815533D7
:1003800019F45281561741F0F901E40FF11DE817F5
:10039000F90780F380E001C081E01F910F91FF9089
:1003A000EF90DF90CF900895E0916602F0916702A0
:1003B0009F012F5F3F4F3093670220936602808337
:1003C0000895EF92FF920F931F93CF93DF931F92A5
:1003D000CDB7DEB7062F142F59830E94D401802F8A
:1003E0000E94D401E12E5981F52E100F1E1531F017
:1003F000F70181917F010E94D401F8CF0F90DF9126
:10040000CF911F910F91FF90EF9008958091450437
:10041000882301F190912601539AE6E6F0E03197A6
:10042000F1F788E046E650E038E090FD539A90FFFF
:100430005398FA013197F1F72AB123272AB9FA0123
:100440003197F1F79695815081F7539886E690E0C1
:100450000197F1F7109245040895CF93DF93E0914F
:100460007E04EF700E2E000CFF0BE45DFE4F6081EA
:1004700089E894E00E94D50BC09165028C2F880F0B
:10048000C80FCC0FD0E0C85BDB4F8881082E000C72
:10049000990B0E94801389818F7190E00E948013D4
:1004A0008B81082E000C990B0E9480138C81082EE2
:1004B000000C990B0E94801384EC91E0DF91CF91A6
:1004C0000C9485130F931F93CF93DF93453C5105F5
:1004D000C9F5EB018B010E561D4FF801EB53FF4F91
:1004E000108287EC91E00E948513CC5BDC4FCE013B
:1004F0000E949713C801E7E2F1E045E04E0FDC01EE
:10050000A954BF4F3C913F7011962C912F705AE027
:10051000359F200D1124219303964E13F0CF8DECBF
:1005200091E00E94851310E0699189E894E00E94AF
:10053000D50B1F5F1430C1F7DF91CF911F910F9141
:100540000C942D02DF91CF911F910F91089580910E
:10055000A20290E0982F88272091A302822B449733
:100560002091C00230E044E0359527954A95E1F7A7
:10057000220F331F220F331F821B930B97FF02C0E2
:1005800080E090E008952091B6023091B40230935B
:10059000B6022093B4022091B7023091B502309395
:1005A000B7022093B5022CEB32E0A0ECB2E0F901E7
:1005B0004291840F911D4E918C93662311F04083DC
:1005C00001C01082892F992744E04E0F4213F0CFCB
:1005D0001092C4021092C50280E58093C002089573
:1005E000BC0182E992E00E94640F69E274E088E94C
:1005F00092E00C94640FCF93DF9300D0CDB7DEB7B9
:1006000069837A830E94F00269817A8180EB92E0AB
:100610000E94830F65E874E08CEA92E00F900F90DF
:10062000DF91CF910C94830FEF92FF920F931F9362
:10063000CF93DF93182F092FEB01F42EE52ECB017A
:100640000E94A513BE01882319F086E892E002C03B
:100650008CE892E00E94FB022881207F203E91F0EE
:1006600088819981AA81BB818F3F9F4FAF4FBF4F38
:1006700049F044E050E0BE0182E892E00E94771821
:10068000892B31F460E471E082E992E00E94640F0A
:1006900088E080939E0210929F0249E050E060E162
:1006A00071E080EA92E00E94AA171092A20281E112
:1006B0008093A902E092B602F092B7020093B402CE
:1006C0001093B5021092B8021092BA021092BB02B7
:1006D000DF91CF911F910F91FF90EF9008950F93AD
:1006E0001F93CF93DF9370E06E567D4F213021F43E
:1006F0008A01075F1F4F0CC0223039F000E010E084
:100700009801DB011196EA0106C08A010250110925
:1007100020E030E0F6CFC230D10578F0FD0131970E
:10072000E081F0E0FE2FEE279C91E92B0E0F1F1FBA
:10073000211D311D22971296EECFFA01EE7FE60FB2
:10074000F71F40FF0CC0408150E060E070E0762F62
:10075000652F542F4427040F151F261F371FA9018B
:1007600066277727411551056105710519F0222784
:100770003327F1CF00951095E82FF0E0EE56FD4FAE
:1007800010830183DF91CF911F910F910895E2E9CA
:10079000F2E0108E118E80E4848B158A868B20E027
:1007A00044E150E06EE088E10C946F0388E992E048
:1007B0000E94F0026CEA72E080EB92E00E94830FEC
:1007C00065E874E08CEA92E00E94830F0C94C70302
:1007D0008EBD0DB407FEFDCF089561E08091260423
:1007E0000E94B60D78940895F89460E080912604F4
:1007F0000C94B60D0F931F93CF93DF93EC018B01F5
:100800000E94F4032097B9F08AE30E94E8031EBC1B
:10081000F801CE01019739F00DB407FEFDCF2EB5DA
:100820001EBC2193F7CF2197C00FD11F0DB407FE37
:10083000FDCF8EB58883DF91CF911F910F910C94DE
:10084000ED03CF93DF9300D01F92CDB7DEB74B837C
:100850006A8389830E94F4036A816F718981862B80
:100860000E94E8034B81842F0E94E8030F900F90B1
:100870000F90DF91CF910C94ED031F93CF93DF93F3
:10088000182F1076C12FD0E020917E0230E0C217E1
:10089000D307A1F043E06FE180EA0E9421041093A6
:1008A0007E02AE0185E0559547958A95E1F76FE1A7
:1008B00080E8DF91CF911F910C942104DF91CF91BB
:1008C0001F9108951F93CF93DF931F92CDB7DEB78B
:1008D000182F69830E943D044981612F80E40F90A5
:1008E000DF91CF911F910C9421041F93CF93DF933D
:1008F0001F92CDB7DEB7182F79830E9462047981E9
:10090000672F81E0810F0F90DF91CF911F910C94A1
:1009100062041F93CF93DF931F92CDB7DEB7182FDA
:100920000E943D040E94F403812F8F710E94E8030E
:1009300080E00E94E80317FF03C080E00E94E80304
:100940008EB589830E94ED0389810F90DF91CF914D
:100950001F9108950F931F93CF93DF9300D000D082
:1009600000D0CDB7DEB780918102882389F06091F5
:100970007F02709180026115710519F46FEF7BE0C1
:1009800002C0615071098CE00E94750410928102CE
:1009900089E30E9489048823C9F160917F027091E4
:1009A000800280E00E947504BE016F5F7F4F86E089
:1009B00090E00E94FA0389819A819093800280934B
:1009C0007F020B811C8180912704909128042D8146
:1009D00027FF0DC00197045011098017910708F4F3
:1009E0008C0162E972E0C8010E94FA0302C000E0D3
:1009F00010E0F801EE56FD4F108281E080938102F5
:100A000040E46EE180E80E94210402C000E010E0B2
:100A1000C80126960FB6F894DEBF0FBECDBFDF919A
:100A2000CF911F910F910895CF93DF93EC0140E890
:100A30006FE180E80E94210440E86FE180EA0E94B3
:100A400021044AE06CE180EA0E94210460E07CE03D
:100A500082E00E947504BE01745F86E00E94750406
:100A600040E060E08AE70E9421040E94F40320979E
:100A700051F40E94ED0348E06FE180E80E942104F8
:100A8000C0E0D0E01CC08AE70E94E8038091920297
:100A90008EBDE3E9F2E0CE56DD4FEC17FD0731F0F5
:100AA00081910DB407FEFDCF8EBDF7CF0DB407FECB
:100AB000FDCFDFCF2196C83E83E0D80729F08CE137
:100AC0000E9489048A70B1F38CE10E94890481FD3F
:100AD00003C0C83ED34039F448E06FE180EADF91BB
:100AE000CF910C942104DF91CF9108950F931F9320
:100AF000CF93DF93EC0102E912E04C96F801908B62
:100B0000818B0E94C703CE010896F80196A387A3A4
:100B1000AE01405F5F4F21E06AE188E20E946F030F
:100B2000CE018A96DF91CF911F910F910C941405FD
:100B3000EF92FF920F931F93CF93DF938C0186E187
:100B400091E0E2E9F2E0DF019C011D92215030408A
:100B5000E1F780917D02833019F060E471E002C01A
:100B600068E672E043E450E084E490E00E941403FD
:100B700060E471E082E992E00E94640F81E080937A
:100B8000BC028093BD0286E08093BE0280916D021C
:100B900090916E02A0916F02B09170028093C0029A
:100BA0009093C102A093C202B093C302F0907D0261
:100BB00033E0F31206C065E874E088EC92E00E942E
:100BC000830F69E274E088ED92E00E94640F88EA86
:100BD00093E09093670280936602C8E6D0E0EC2E23
:100BE00084E0E80EFE0184910E94D4012196EC126B
:100BF000F9CF85E30E94D40181E00E94D401FF2057
:100C000011F083E001C081E00E94D4018DE30E94D5
:100C1000D40187E00E94D40181E00E94D401C9E29E
:100C2000D4E0FC2E26E0F20EFC1621F089910E9401
:100C3000D401FACF80910001882371F0E0E0F1E067
:100C400001900020E9F73197BF016050714040E00A
:100C500051E08CE00E94E1010115110559F0A80155
:100C600064E082E30E94E10148E652E064E086E34A
:100C70000E94E10187E30E94D40183E00E94D40135
:100C800081E00E94D40183E00E94D40186E00E94AA
:100C9000D4018FEF0E94D401809166029091670287
:100CA0008C5B9240DF91CF911F910F91FF90EF905D
:100CB0000C947605262F20612093C102643021F028
:100CC000009711F481E090E061E00E94C30210926D
:100CD000A20288E28093A3020E94D60384E080935C
:100CE000C2021092C30222E04CE150E06AE182E3CA
:100CF0000E946F0386E390E00C94140561E184ED9B
:100D00000E94620461E082ED0E9462048AEE0E9409
:100D1000890480FDFBCF60E082ED0E94620489EDD2
:100D20000E94890482FB882780F90895CF93DF937E
:100D3000EB01682F84ED0E946204BE0186ED0E94E3
:100D400075048AEE0E94890480FDFBCFDF91CF916C
:100D50000895CF92DF92EF92FF920F931F93CF935C
:100D6000DF9300D000D0CDB7DEB78C0180917D023B
:100D7000823009F480C030F48823A9F1813009F46D
:100D800052C035C1833021F0843009F474C02FC1C2
:100D9000C0907902D0907A02E0907B02F0907C02C1
:100DA0002FEFC216D206E206F20609F420C10E9415
:100DB0005C0E0091750210917602209177023091BD
:100DC0007802DC01CB01801B910BA20BB30B8C15BD
:100DD0009D05AE05BF0508F40AC185E894E00E94B0
:100DE000980584E0F8C00E945C0E60936D027093D9
:100DF0006E0280936F02909370021092850410929D
:100E00008604109287041092880480E090E00E948B
:100E1000980588E30E948904682F616088E30E9436
:100E2000620481E0D8C062E0C8010E949401882376
:100E300041F16CEC72E0CE0101960E94830FECEA66
:100E4000F3E00E561D4FBF016E5F7F4F8181908191
:100E5000963329F488E692E00E94830F06C0FB01D6
:100E6000E80FF11DE017F10770F3CE0101960E9423
:100E7000980582E0B0C065E0C8010E94940181112C
:100E800019C00E945C0E00917102109172022091B3
:100E9000730230917402DC01CB01801B910BA20B19
:100EA000B30B81319742A105B10508F4A0C010929F
:100EB0007D029DC080916C02811108C088E30E9470
:100EC0008904682F6E7F88E30E9462046CEC72E0F4
:100ED00085E894E00E94830FECEAF3E00E561D4F84
:100EE0007F0182E0E80EF11CD18080818630A9F07C
:100EF00048F4813071F0833009F045C0B7018FE0CC
:100F000094E00EC08A3379F08F3FD9F18333D9F55D
:100F10000AC0B70181E894E003C0B7018BE094E018
:100F20000E94830F30C0D701369620E030E0A9013F
:100F30008D91742F632F522F44279A01AB01280FF4
:100F4000311D411D511DAE17BF0791F72093790246
:100F500030937A0240937B0250937C022F3F8FEFB5
:100F600038074807580779F0A8EEB3E00E945218F6
:100F70006093790270937A0280937B0290937C0253
:100F800002C081E001C080E0F701ED0DF11D81118B
:100F900004C0E017F10708F4A3CF0E945C0E609331
:100FA0007502709376028093770290937802809115
:100FB0000F04882361F0109214041092130481E04E
:100FC000809315046FE074E0CB010E94830F83E0EF
:100FD00080937D020CC080937D020E945C0E609322
:100FE00071027093720280937302909374020F9057
:100FF0000F900F900F90DF91CF911F910F91FF9065
:10100000EF90DF90CF900895AF92BF92CF92DF9292
:10101000EF92FF920F931F93CF93DF93CDB7DEB77D
:10102000ED84FE84CF84D8888E010F5E1F4FC601E9
:101030000196F6012491222309F4D6C0243279F0D6
:10104000D7011696ED91FC911797AF014F5F5F4F57
:1010500017965C934E93169720836C01E8CFB2E00D
:10106000CB0ED11CFC019491963409F46FC05CF452
:101070009434C1F0953409F099C0F80180819181D0
:101080000E5F1F4F7BC0D70116964D915C9117974D
:101090009C3409F443C0933509F44DC0983409F0E9
:1010A00085C00DC05801B2E0AB0EB11CF7016681DE
:1010B0007781D8018D919C910E94C31385C0B8019E
:1010C0006E5F7F4FF8019081292F092E000C330BA2
:1010D00084E0359527958A95E1F72F709F709A30B7
:1010E0000CF0995F905D2A300CF0295FFA0131967F
:1010F000D7011796FC93EE931697205DFA01208393
:101100001696ED91FC9117979F012F5F3F4F179611
:101110003C932E93169790838B0189CF5801F4E06E
:10112000AF0EB11CD8016D917D918D919C912AE0FB
:101130000E94B31749C05801B2E0AB0EB11CF801D0
:1011400060817181CA010E9484183EC0F80101903B
:10115000F081E02D0E5F1F4F8491AF014F5F5F4F15
:10116000882309F464CFF701A681B7819D012F5F21
:101170003F4F378326838C93FA01EECF5C01BFEF9C
:10118000AB1ABB0A0E94F417882309F450CFD70189
:101190001696ED91FC9117979F012F5F3F4F179681
:1011A0003C932E9316978083C501E8CFD7011696FE
:1011B000ED91FC9117979F012F5F3F4F17963C933E
:1011C0002E931697908333CFD7011696ED91FC910D
:1011D000179701900020E9F7CF01019717969C938C
:1011E0008E931697850123CFDF91CF911F910F9199
:1011F000FF90EF90DF90CF90BF90AF9008958DEC6F
:1012000091E00E94851380916502806390E00E94C6
:10121000801380E290E00E94801380E290E00E94C0
:10122000801380E290E00E9480130C942D022F9294
:101230003F924F925F926F927F928F929F92AF9266
:10124000BF92CF92DF92EF92FF920F931F93CF93B3
:10125000DF9300D000D01F92CDB7DEB74B015C0109
:101260000E945C0E6B017C01860E971EA81EB91EA3
:1012700070E0272E71E0372E85E894E024E0280FF7
:101280002983E8E04E2E542C32010E945C0E681532
:1012900079058A059B0508F008C20E94AA040E94ED
:1012A000C20F89E894E00E949E0B181619063CF4C0
:1012B00089E894E00E947C0B01E00D9709F000E0C2
:1012C000EEE3F1E08491E7EAF2E09491E3E9F2E001
:1012D00014911123B9F0882321F09C830E948D0D75
:1012E0009C81E12FF0E0EE0FFF1FE858FD4FA59124
:1012F000B4918C91892331E020E009F430E0832F10
:10130000922F02C080E090E0F1E08F2780FD02C0C4
:101310000023F9F00E945C0E6C157D058E059F057B
:10132000C0F0809165028F5F893008F47FC0109211
:1013300065020E94FF080E945C0E6B017C0128EC94
:10134000C20ED11CE11CF11C38EC830E911CA11CB7
:10135000B11C109147040E947E06181709F495CF1E
:101360000E947E068093470481ED91E00E948513E0
:1013700080914704882309F454C08AED91E00E94CB
:10138000971380914604811180CF81E080932F04D0
:10139000F10101900020E9F79F0123503140409175
:1013A0002E04842F90E054E0959587955A95E1F7A7
:1013B0008A30910514F057E301C050E3F901E05081
:1013C000FF4F850F8083F10101900020E9F7CF01E5
:1013D000825091404F704A3014F027E301C020E35F
:1013E000FC01E050FF4F420F408310927D020E94AB
:1013F0005C0E7B836A8310917D021330D1F00E94D2
:101400005C0E2A813B81621B730B60367A4E88F436
:101410000E947E06882379F30E94AA040E94A906EE
:10142000EACF8CE092E00E9497132FCF8093650261
:1014300080CF41E854E022E832E0E5E8F4E0919121
:10144000DA018D91AD018095892BD9018D939D0194
:10145000B981BE13F4CF1092140410921304133008
:1014600009F0D4C065E874E08DED91E00E94000FB2
:101470006FE074E082EE91E00E94000F6BE074E098
:1014800087EE91E00E94000F0E945C0E7B836A83CE
:101490000E947E0681110AC00E945C0E2A813B8157
:1014A000621B730B6033754798F3ADC011E08BE09E
:1014B00094E00E94A513882319F080910A0404C0C7
:1014C0008091150486958170812771F00E94AA048D
:1014D0000E94C20F0E945C0E2A813B81621B730B2B
:1014E0006033754720F38FC01092060410920704F2
:1014F0001092080410920904809164028F5F809317
:10150000640290910B04911108C040920B04509218
:101510000C0460920D0470920E0490E045E350E0DC
:101520006BE074E0906E0E9414038CE0ACEBB2E0D0
:101530001D928A95E9F7A8ECB2E089E592E08C016A
:10154000382F402F481BF80124910F5F1F4F2E3278
:1015500051F0222341F0402F431BBD01640F711D48
:10156000FB012083EECF4C93842F90E00196A80FCF
:10157000B91F222311F0C801E2CF1C9211961C92D0
:10158000119721E012962C93129713961C921397A1
:1015900014962C93149782E992E0A81BA552A0936D
:1015A000BC02809164028093BD022093BE0220930E
:1015B000C1028A2F90E00E9476050E945C0E8B018A
:1015C00080910604811115C00E945C0E601B710B96
:1015D00060337547C0F40E94AA049C01009781F310
:1015E0002C833D830E94C20F2C813D81892B41F7C2
:1015F00010C066E074E08DEE91E00E94000F81E083
:101600008093460442CE83EF91E00DCF8FEF91E0BF
:101610000ACF26343105A0F28091B502853381F6D8
:101620008091B602803E61F68091B702909164028B
:101630008913C6CF9091BD029813C2CF8091BF028B
:101640008F7009F7E091BC02F0E0E454FD4FA9016E
:101650004E565D4F8081807C11F032960CC0CF01D8
:101660000196FC018417950730F4CF010196208183
:101670002111F7CFFC01CF010E964817590708F446
:101680009FCF81816185813051F4643041F4BF0185
:10169000665F7F4F86E094E00E94830F91CF70E0F9
:1016A000665F7F4FE60FF71FD5CF0F900F900F901B
:1016B0000F900F90DF91CF911F910F91FF90EF90BE
:1016C000DF90CF90BF90AF909F908F907F906F9062
:1016D0005F904F903F902F900895FC01538D448D63
:1016E000252F30E0842F90E0821B930B541710F0CD
:1016F000CF96089501970895FC01918D828D9817DA
:1017000061F0828DDF01A80FB11D5D968C91928DE5
:101710009F5F9F73928F90E008958FEF9FEF0895E2
:10172000FC01918D828D981731F0828DE80FF11DAB
:10173000858D90E008958FEF9FEF0895FC01918DC6
:10174000228D892F90E0805C9F4F821B91098F73BF
:101750009927089589E894E00E949E0B21E0892B47
:1017600009F420E0822F0895FC01848DDF01A80F89
:10177000B11DA35ABF4F2C91848D90E001968F73B9
:101780009927848FA689B7892C93A089B1898C91D8
:1017900080648C93938D848D981306C00288F3899E
:1017A000E02D80818F7D80830895EF92FF920F93CB
:1017B0001F93CF93DF93EC0181E0888F9B8D8C8DFD
:1017C000981305C0E889F989808185FD24C0F62E2B
:1017D0000B8D10E00F5F1F4F0F731127E02E8C8DC4
:1017E000E8120CC00FB607FCFACFE889F9898081AE
:1017F00085FFF5CFCE010E94B40BF1CF8B8DFE019A
:10180000E80FF11DE35AFF4FF0820B8FEA89FB8945
:101810008081806207C0EE89FF896083E889F98949
:1018200080818064808381E090E0DF91CF911F917F
:101830000F91FF90EF900895CF93DF93EC01888D87
:101840008823C9F0EA89FB89808185FD05C0A889C4
:10185000B9898C9186FD0FC00FB607FCF5CF80814A
:1018600085FFF2CFA889B9898C9185FFEDCFCE0194
:101870000E94B40BE7CFDF91CF91089580E090E014
:10188000892B29F00E94AA0B81110C940000089565
:101890003FB7F8948091220490912304A0912404EE
:1018A000B091250426B5A89B05C02F3F19F00196DD
:1018B000A11DB11D3FBFBA2FA92F982F8827820FD6
:1018C000911DA11DB11DBC01CD0142E0660F771F26
:1018D000881F991F4A95D1F7089508950F931F9374
:1018E000CF93DF93890190913804891751F0E091EB
:1018F0003904F0913A0440E050E060E070E084E0A8
:1019000029C0611128C02D30310528F1C09139045A
:10191000D0913A042097F9F0BA0165567D4F43E023
:1019200050E081E192E00E948B186091C00270E06B
:1019300024E0759567952A95E1F7660F771F660F86
:10194000771F6E5D7F4F21E0892B09F420E0A8010D
:10195000822FFE01099580E0DF91CF911F910F91B9
:1019600008950F931F93CF93DF93CDB7DEB72897DA
:101970000FB6F894DEBF0FBECDBF1C821B8228E3DA
:1019800031E03A83298328EC32E03E832D83388787
:101990002F8390913804891357C0A0913B04B091D4
:1019A0003C040091400410913F0470914404609104
:1019B0004304AE014F5F5F4F1097C9F480913E041E
:1019C0008F9380913D048F930F931F9380914204D6
:1019D0008F93809141048F937F936F938CEE90E06F
:1019E0009F938F935F934F930E94040828C0809128
:1019F0003D0490913E04FD0101900020E9F73197EC
:101A0000EA1BFB0B009719F024EC31E004C026EC34
:101A100031E084E790E0BF93AF93FF93EF933F9360
:101A20002F939F938F930F931F937F936F9385E7CC
:101A300090E09F938F935F934F930E9404080FB69B
:101A4000F894DEBF0FBECDBF8F8198852D813E817A
:101A5000821B930B28960FB6F894DEBF0FBECDBF46
:101A6000DF91CF911F910F9108951F920F920FB6A2
:101A70000F9211242F933F934F935F936F937F9314
:101A80008F939F93AF93BF93EF93FF9389E894E075
:101A90000E94B40BFF91EF91BF91AF919F918F91F5
:101AA0007F916F915F914F913F912F910F900FBE5A
:101AB0000F901F9018951F920F920FB60F9211243E
:101AC0002F938F939F93EF93FF93E0919904F0915D
:101AD0009A048081E0919F04F091A00482FD12C0DD
:101AE00090818091A2048F5F8F732091A30482174D
:101AF00051F0E091A204F0E0E757FB4F958F8093FF
:101B0000A20401C08081FF91EF919F918F912F914D
:101B10000F900FBE0F901F901895833081F028F41E
:101B2000813099F08230A1F008958730A9F0883093
:101B3000B9F08430D1F4809180008F7D03C0809112
:101B400080008F7780938000089584B58F7702C0DE
:101B500084B58F7D84BD08958091B0008F7703C0D8
:101B60008091B0008F7D8093B00008951F93CF9334
:101B7000DF93282F30E0F901E35DFE4F8491F901F6
:101B8000EA56FD4FD491F901EE57FD4FC491CC2395
:101B9000C9F0162F81110E948D0DEC2FF0E0EE0F91
:101BA000FF1FED5DFE4FA591B4918FB7F894111111
:101BB00005C09C91ED2FE095E92302C0EC91ED2B3F
:101BC000EC938FBFDF91CF911F910895CF93DF9357
:101BD00090E0FC01EA56FD4F2491FC01EE57FD4FC9
:101BE0008491882361F190E0880F991FFC01E75EE2
:101BF000FE4FC591D491FC01ED5DFE4FA591B491CE
:101C0000611109C09FB7F894888120958223888349
:101C1000EC912E230BC0623061F49FB7F8943881A9
:101C2000822F809583238883EC912E2B2C939FBF4A
:101C300006C08FB7F894E8812E2B28838FBFDF91E1
:101C4000CF9108958F929F92AF92BF92CF92DF92E1
:101C5000EF92FF926B017C010E94480C4B015C01EA
:101C6000C114D104E104F104F1F00E94480CDC013C
:101C7000CB0188199909AA09BB09883E9340A1059F
:101C8000B10570F321E0C21AD108E108F10888EE2D
:101C9000880E83E0981EA11CB11CC114D104E1047C
:101CA000F10419F7DDCFFF90EF90DF90CF90BF9058
:101CB000AF909F908F9008952FB7F89460911E0475
:101CC00070911F0480912004909121042FBF0895EA
:101CD0001F920F920FB60F9211242F933F938F9361
:101CE0009F93AF93BF9380911E0490911F04A09186
:101CF0002004B091210430911D0423E0230F2D37DF
:101D000020F40196A11DB11D05C026E8230F0296FF
:101D1000A11DB11D20931D0480931E0490931F04E8
:101D2000A0932004B0932104809122049091230475
:101D3000A0912404B09125040196A11DB11D8093AA
:101D4000220490932304A0932404B0932504BF910C
:101D5000AF919F918F913F912F910F900FBE0F9058
:101D60001F9018951F920F920FB60F9211242F9368
:101D70003F934F935F936F937F938F939F93AF9313
:101D8000BF93EF93FF93E0912401F0912501099512
:101D9000FF91EF91BF91AF919F918F917F916F9143
:101DA0005F914F913F912F910F900FBE0F901F9019
:101DB00018951F920F920FB60F9211242F933F93F5
:101DC0004F935F936F937F938F939F93AF93BF9343
:101DD000EF93FF93E0912201F09123010995FF9188
:101DE000EF91BF91AF919F918F917F916F915F9193
:101DF0004F913F912F910F900FBE0F901F9018950C
:101E00008F929F92AF92BF92CF92DF92EF92FF920A
:101E10001F93CF93DF93CDB7DEB7A3970FB6F89498
:101E2000DEBF0FBECDBF6AA37BA30E9485136AA14C
:101E3000E62E7BA1F72E10E08AE0882E912CA12CB3
:101E4000B12CF70181917F01282F30E040E050E074
:101E500019A2CE0181966C01CA01B901A5019401B4
:101E60000E943018605DF60162936F012115310503
:101E70004105510589F7CF010E948513133059F0B0
:101E8000E0918904F0918A040190F081E02D6EE2E6
:101E900089E894E009951F5F143099F684EC91E08D
:101EA0000E948513A3960FB6F894DEBF0FBECDBF78
:101EB000DF91CF911F91FF90EF90DF90CF90BF9077
:101EC000AF909F908F900895DC0196E0FB01019008
:101ED0000D929A95E1F70895CF93DF93EB0144E0DB
:101EE00050E0BC018EEA92E00E947718892B39F409
:101EF00068EA72E0CE010E94640F81E001C080E0D8
:101F0000DF91CF910895FB014081518162817381FE
:101F1000FC01408351836283738308950F931F9361
:101F2000CF938C0180E491E00E94F002E2E9F2E0BC
:101F300088E08487C6E0C58748E050E06CE670E042
:101F400080EA92E00E94AA17E2EBF2E0DF011D9224
:101F5000CA95E9F769E274E088EA92E00E94640FAA
:101F6000B80188EB92E00E94830F65E874E08EEA86
:101F700092E00E94830F8AE290E0CF911F910F912F
:101F80000C941405CF92DF92FF920F931F93CF937F
:101F9000DF931F92CDB7DEB78C0180912F04882389
:101FA00019F0C8010E94A9060115110509F0BDC06C
:101FB00080911504857051F0809113049091140460
:101FC000892B21F40E947E068111C9C080911304DF
:101FD00090911404019690931404809313048091BB
:101FE0003104813009F07CC08091150481FF78C0F4
:101FF00082E080933104809121018F5F80932101E1
:1020000010913204009133048F712091300490E2DA
:10201000299F90011124F82EF22A86E094E00E9474
:10202000A51366E074E0882319F086E892E002C008
:102030008CE892E00E94FB02E8E0DE2ED0929E0245
:1020400010929F0249E050E060E171E080EA92E086
:102050000E94AA178CE28093A30286E08093A902D3
:102060000E94C7030093B6021093B7028BE08093DF
:10207000B402F092B502E8EBF2E0DF011D92DA94CF
:10208000E9F7809120018093BA028D5F809320014F
:1020900080E68093C00282E08093C10293E0909337
:1020A000C2021092C3021092C4021092C502109292
:1020B000C6021092C7028093C80294E09093C902AE
:1020C0008093CA0286E28093CB0222E040E250E095
:1020D0006AE182E30E946F038AE390E00E941405A4
:1020E0008BE094E00E94A513882341F080910A04BC
:1020F000811104C080911C048823D9F186E094E00A
:102100000E94A513882309F4A9C080911B048111A2
:10211000A5C080911A048111A1C086E094E00E94BC
:102120008E0F81E080931A0499C00932110508F4DA
:1021300095C080919E02883009F090C080919F02E6
:10214000863009F086C044E050E065E874E088EB32
:1021500092E00E947718892B09F080C012C08FE0AE
:1021600094E00E948E0F809115048860809315047E
:102170002DCF8BE094E00E948E0F81E080931C04B1
:10218000BDCF8091A702813029F588E992E00E94B5
:10219000F0021092A60282E08093A70268EA72E041
:1021A00082EB92E00E94640F69E274E088EA92E0B8
:1021B0000E94640F6EEA72E088EB92E00E94830F47
:1021C00065E874E08EEA92E00E94830F8AE290E074
:1021D0000E9414058091150483FF0CC01091A70282
:1021E000123041F46CE872E08FE094E00E946C0FD2
:1021F000811126C080910A0481110CC080911C04B9
:10220000882341F066E872E08BE094E00E946C0F56
:10221000811119C080911B04811120C080911A0482
:102220008823E1F066E872E086E094E00E946C0F9B
:102230008823A1F081E080931B0410921A040EC041
:1022400010931504D7CF81E080930A0410921C04E8
:10225000E1CF0932110511F0882319F0C12CD12CDE
:102260007AC18091A0028534C9F744E050E065E866
:1022700074E080EB92E00E947718892BA1F044E093
:1022800050E062E872E080EB92E00E947718892BC0
:1022900051F044E050E060E471E080EB92E00E9495
:1022A0007718892BD9F68091A9028130F9F48091B1
:1022B000B402883099F6E0911804F091190430972F
:1022C00019F08CEA92E009950E94D6031092B402AC
:1022D0008091B602883F28F09091B7029F5F90935B
:1022E000B702885F8093B602C8010CC1063311059E
:1022F00008F4B4CF863009F0B1CF8091B6028B30AC
:1023000009F0BDC044E050E066E074E08CEA92E081
:102310000E947718892B09F0A1CF2091C10222FFDA
:1023200013C0E0913604F0913704309759F0809152
:10233000B70220E030E040E050E063E0829586950F
:102340008770099585E08FC029830E94A7026C01E0
:10235000809131042981823009F043C0822F80713D
:102360002271223191F560E080E090E00E945A06EF
:1023700088E18093C102E0913404F09135043097F4
:1023800041F08091B50282958695877009958C0100
:1023900002C000E010E083E080933104C801889619
:1023A0009093A2028093A3020E94C7031092C402DA
:1023B0001092C502A801445E5F4F22E06AE182E309
:1023C0000E946F03C801C6969DC091E090933104AE
:1023D000811103C0C601019602C080E090E064E074
:1023E0004BC0833091F5C114D10491F1E0913604D2
:1023F000F0913704309761F14091C00250E064E001
:10240000559547956A95E1F7440F551F440F551FA1
:10241000C80108974E5D5F4F8417950708F4AC011B
:10242000C601840F951F0817190720F49801241B73
:10243000350B01C096018091B70260E082958695C8
:102440008770099569E0C6010BC0853009F406CF95
:1024500020FF0CC0833009F401CF69E0C60101966A
:102460000E945A0686E080933104F8CEC114D1044C
:1024700009F4F4CE60E0C6010E945A06EFCE811145
:10248000EDCE8091B702803509F0E8CEF090C10220
:10249000F1FE3BC01092A2028CE28093A3020E9444
:1024A000D60382E18093C10260E081E090E00E9467
:1024B000C3021092B8021092B90280912001809359
:1024C000BA021092BB028D5F8093200182E080935C
:1024D000C80284E08093C90285E08093CA0210920A
:1024E000CB0290E69093C0028093C20288E780936B
:1024F000C30222E040E250E06AE182E30E946F03FF
:102500008AE390E00E941405A9CEF4FEA7CE0E94B3
:10251000A7026C019093170480931604892BA1F0F5
:102520008091C00290E024E0959587952A95E1F787
:10253000880F991F880F991F6C01B2E2CB0ED11C36
:102540000C151D0540F48ACEF0FE88CE60E080E0D8
:1025500090E00E945A06C6010F90DF91CF911F9123
:102560000F91FF90DF90CF90089590914805E091F2
:102570004905F0914A05F8948181292F20958223FD
:10258000818378948DE743E050E0815021F1DA01B6
:102590001197F1F730813923C1F3F89482818223B6
:1025A00082838181892B81837894ABE7B7E011978F
:1025B000F1F7F894818128232183A3E1B1E01197F9
:1025C000F1F78081982381E009F080E07894E3E6D8
:1025D000F6E03197F1F70895AF92BF92CF92DF9274
:1025E000EF92FF920F931F93CF93DF9328E030E099
:1025F00041E0AA24AA94B12CCFE0D0E003E210E09D
:1026000057EDE52EF12C90914805E0914905F091A8
:102610004A05592F5095742F782381F0F8947281D0
:10262000572352835181592B5183D8011197F1F7C8
:102630005281952B92837894F7010FC0F8947281A0
:10264000572352835181592B5183D5011197F1F7AB
:102650005281952B92837894FE013197F1F7440FC4
:102660002150310981F6611113C0F894E0914905B8
:10267000F0914A0591818091480580959823918336
:10268000E0914905F0914A059281892382837894EB
:10269000DF91CF911F910F91FF90EF90DF90CF903E
:1026A000BF90AF900895CF92DF92EF92FF920F9379
:1026B0001F93CF93DF936C017A018B01C0E0D0E0D0
:1026C000CE15DF0589F0D8016D918D01D601ED9110
:1026D000FC910190F081E02DC6010995892B11F440
:1026E0007E0102C02196ECCFC701DF91CF911F91EF
:1026F0000F91FF90EF90DF90CF9008950E94721895
:10270000682F89E894E00C94D50B009769F0FC01E0
:1027100001900020E9F73197AF01481B590BBC012C
:1027200089E894E00C94531380E090E00895CF93EF
:10273000DF930E948513EC0184EC91E00E948513E5
:102740008C0F9D1FDF91CF910895CF93DF93209140
:1027500085042223A1F0FC012081222381F0A5E839
:10276000B4E0C1E8D4E08D91219199918227892329
:1027700031F484E0A938B807B1F781E001C080E006
:10278000DF91CF910895CF93DF93EC01FB018A3065
:10279000910548F06AE070E00E940818CB01BF0183
:1027A0000E94C313FC01CE016AE070E00E94081889
:1027B000805D80831182CF010196DF91CF910895D2
:1027C00010928C0410928B0488EE93E0A0E0B0E0AD
:1027D00080938D0490938E04A0938F04B093900403
:1027E0008AEA91E090938A048093890485EC90E0D2
:1027F000909396048093950484EC90E090939804D1
:102800008093970480EC90E090939A0480939904CD
:1028100081EC90E090939C0480939B0482EC90E088
:1028200090939E0480939D0486EC90E09093A00486
:1028300080939F041092A2041092A3041092A40407
:102840001092A50460E080E10E94E60DE6EAF2E065
:10285000E491E0934805E2E9F2E0E491F0E0EE0F64
:10286000FF1FE858FD4F8591949190934A058093FE
:102870004905109253051092550510925405E3E551
:10288000F5E0129285E0EB34F807D9F70895CF937D
:10289000DF9300D01F92CDB7DEB7789484B5826005
:1028A00084BD84B5816084BD85B5826085BD85B5F4
:1028B000816085BD80916E00816080936E00109272
:1028C00081008091810082608093810080918100ED
:1028D000816080938100809180008160809380007E
:1028E0008091B10084608093B1008091B0008160DC
:1028F0008093B00080917A00846080937A00809108
:102900007A00826080937A0080917A00816080935F
:102910007A0080917A00806880937A001092C100DA
:1029200088E088B95A9AF8941092B1001092800009
:102930001092700010926F0082E18093B00083E0EB
:102940008093B4008093B30081E08093B1007894C9
:10295000E0919904F0919A0482E08083E0919504DB
:10296000F09196041082E0919704F091980480E130
:1029700080831092A104E0919D04F0919E0486E072
:102980008083E0919B04F0919C048081806180832E
:10299000E0919B04F0919C04808188608083E091A9
:1029A0009B04F0919C04808180688083E0919B046B
:1029B000F0919C0480818F7D808385E192E00E946C
:1029C000971310922F0487E390E001E010E020E0DD
:1029D00030E00097D1F0FC0143E0F595E7954A958A
:1029E000E1F7EA5DFA4F482F47706801790104C0AA
:1029F000CC0CDD1CEE1CFF1C4A95D2F7B701A601DA
:102A0000A0814A2B40830197E4CF66E471E089E21C
:102A100094E00E94640F84E791E0909328048093EF
:102A200027040CB406FC25C061E08AE00E94E60D94
:102A300061E08AE00E94B60D61E08BE00E94E60D45
:102A400061E08DE00E94E60D60E08CE00E94E60D02
:102A500061E08BE00E94B60D60E08BE00E94B60D55
:102A600060E08DE00E94B60D80E58CBD8DB5816083
:102A70008DBD8AE08093260461E00E94E60D0E94ED
:102A8000ED034FEF60E08FEF0E94210462E070E001
:102A900080E090E00E94220E0E94F4038DE10E94EB
:102AA000E80380E00E94E8031EB50E94ED031123B5
:102AB00099F360E070E088E00E94750460E070E0E7
:102AC0008CE00E9475046FEF7BE08AE00E94750441
:102AD00060E07CE084E00E9475046FEF71E186E0C5
:102AE0000E94750466E774E084E10E94960661EB3B
:102AF00088E30E9462046FE370E388E20E94750439
:102B000069EF77EF80E30E94750461E080EC0E943A
:102B1000620442E362EC80E80E94210462E17CE00E
:102B200086EC0E94750462E184EC0E9462046CED04
:102B300075E08AEC0E9475046091290484EE0E947D
:102B4000620460912A0485EE0E94620460912B0465
:102B500082EE0E94620460912C0483EE0E94620463
:102B600060912D0480EE0E94620460912E0481EE3B
:102B70000E94620460E071E080E10E9496068FE1AD
:102B80000E943D0440EC6BE180E80E94210444E097
:102B90006FE180E80E94210482E70E948904863068
:102BA00008F08F5F811105C08BE292E00E949713BD
:102BB000FFCF0E94B512811105C08FE392E00E9401
:102BC0009713FFCF64EF71E080E090E00E94220E47
:102BD0000E947E0691E089278093470486E092E078
:102BE0009093230180932201809169008C7F826001
:102BF00080936900E89AF7E04F2E512CA3E26A2EE9
:102C0000712CBFECAB2EB12C8FE395E018E0D12EE8
:102C1000D80ED9820E94B51261E08CEC0E94EC12B1
:102C200061E084E40E94EC1268EE73E080E090E0E2
:102C30000E94170968E4E62E64E0F62E4DE255E0A6
:102C40005B834A837EE5272E71E0372E00E010E09B
:102C5000EAE08E2E912C0E94B51260E085E50E947C
:102C6000EC12610158E0C50ED11C60E0D1018D91DC
:102C70001D010E94EC122C143D04B9F761E08EEBAB
:102C80000E94EC12AFE3B5E058E0252E312C61E054
:102C900050E040914805E0914905F0914A05F894CB
:102CA0002181242B21832281742F70952723228355
:102CB000C2010197F1F7218172237183C30101974A
:102CC000F1F720817894F5013197F1F7422309F06B
:102CD000562B660F91E0291A3108D9F65D93E5E08D
:102CE000A834BE0789F680913F0590914005292FB1
:102CF000282B99F0AFE3B5E030E029812A1741F0A5
:102D00002D91E32FE227F0E0EF5BFE4F3491F5CFFA
:102D100020914705321709F410C12A813B81D9015E
:102D20008D919C91F801E85BFB4F97FD0CC044E04E
:102D3000959587954A95E1F7B4010E941C18606348
:102D4000D7016C9310C0919581959109AA81BB819F
:102D50008D939C934DE2D7014C93B4E09595879564
:102D6000BA95E1F78F70806381838EE282834A8116
:102D70005B814E5F5F4F5B834A83D9018D919C914C
:102D8000DC01AF70BB27A25BBE4F8C916AE00E9452
:102D9000FC1780638383906394838BE285830A5F4F
:102DA0001F4FB6E0EB0EF11C16010633110509F0BA
:102DB00052CF80912D0590912E0564E095958795D1
:102DC0006A95E1F7382F809137059091380574E0C6
:102DD000959587957A95E1F7982F609139057091CF
:102DE0003A0540912A01E0913D05F0913E05A4E0AD
:102DF000F595E795AA95E1F781E0E41708F480E0FE
:102E000020912701321770F054E0759567955A9517
:102E1000E1F7621738F48823A9F02091280192176E
:102E200008F094C021E050912B01351708F420E000
:102E3000882349F0941738F4222341F02091290186
:102E4000921718F021E030E002C021E031E090E07C
:102E5000880F991F880F991F8063832B220F282BBF
:102E600020937E0410927F0488E494E00E949713DC
:102E700080914704882309F444C080914604882344
:102E800009F43FC08AE692E090934404809343049F
:102E900088E494E0909342048093410489E592E0B1
:102EA0009093400480933F0481E492E090933E0429
:102EB00080933D0410923C0410923B0482E692E021
:102EC00090933A04809339048EE69CE09093370403
:102ED0008093360481EB9CE0909335048093340416
:102EE0001092330480E58093320481E080933104B2
:102EF000809130048F5F8770809330048093380412
:102F000002C00E94FF089091260181E089278093EA
:102F1000260180914504882321F081E592E00E94FA
:102F2000971381E08093450468E873E180E090E0C6
:102F30000E9417090E943E0C6DCE282F30E0F90147
:102F4000F92BAA81BB81ED93FC93E7CE941708F48B
:102F500075CF78CFFB01DC0102C005900D92415086
:102F60005040D8F70895BB272A3051F4992342F4F2
:102F7000BDE290958095709561957F4F8F4F9F4FE3
:102F80000C94C317BB27FA01A62F621771058105A0
:102F90009105330B30FB66F0AA27660F771F881F59
:102FA000991FAA1FA21710F0A21B63953850A9F70A
:102FB000A05DAA3308F0A95DA19336F7B111B193D2
:102FC0001082CA010C94E417DC01FC01672F719197
:102FD0007723E1F7329704C07C916D9370836291FF
:102FE000AE17BF07C8F30895F999FECF92BD81BD12
:102FF000F89A992780B50895991B79E004C0991F24
:10300000961708F0961B881F7A95C9F78095089542
:10301000AA1BBB1B51E107C0AA1FBB1FA617B707FE
:1030200010F0A61BB70B881F991F5A95A9F780951A
:103030009095BC01CD01089597FB072E16F40094DE
:1030400007D077FD09D00E94081807FC05D03EF490
:10305000909581959F4F0895709561957F4F089544
:10306000A1E21A2EAA1BBB1BFD010DC0AA1FBB1F8C
:10307000EE1FFF1FA217B307E407F50720F0A21BFE
:10308000B30BE40BF50B661F771F881F991F1A946B
:1030900069F760957095809590959B01AC01BD0195
:1030A000CF0108950E946318A59F900DB49F900DC5
:1030B000A49F800D911D11240895EE0FFF1F059010
:1030C000F491E02D0994A29FB001B39FC001A39F8A
:1030D000700D811D1124911DB29F700D811D112451
:1030E000911D089581E090E0F8940C949918FB01EB
:1030F000DC0104C08D910190801921F441505040B1
:10310000C8F7881B990B0895FB01DC0101900D9213
:103110000020E1F70895FB01DC014150504030F000
:103120008D910190801919F40020B9F7881B990B33
:063130000895F894FFCFA2
:1031360041726475696E6F2D454E4332386A36307A
:103146002D303000000000000000000000000000EC
:103156000A016D0C6D0C01192B2E375A2024272BD2
:103166006964676B000000008001531391019001B0
:10317600FFFFFFFFFFFF00010203040550000006EA
:103186000C13191F262C32383E454B51585E281316
:10319600390E060000AF288AB80C0600008928A35D
:1031A600980D060000DE28A7C60C060000BA289F68
:1031B600A90E0600008F28B2EEA9040000AB28F382
:1031C6003DA9040000F9286164118D9ED7EA2861A3
:1031D60064118D8CFF7600000000D50B53136D0B28
:1031E6001C0C9E0B7C0B900B000000007E135313EF
:1031F600910190010D0A004346473A20005E7E7E0B
:10320600004C696E6B206973200055500049503A96
:10321600200047573A2000444E533A200053525656
:103226003A2000444E53206661696C65642100446F
:10323600484350206661696C65642100444F574ECF
:1032460000323030000D0A426F696C65722D61756F
:10325600746F207374617274656400454E4332382E
:103266004A3630206E6F7420666F756E6421004E8C
:103276006F2031574952452073656E736F72732103
:10328600004572726F72206E756C2064657465639A
:04329600746F7200DF
:00000001FF
